:1020000000800020DD660000D9660000D96600006F
:1020100000000000000000000000000000000000C0
:10202000000000000000000000000000D966000071
:102030000000000000000000D966000031670000C9
:10204000D9660000D9660000D9660000D966000094
:10205000D9660000D9660000DD320000DD3E0000D8
:10206000D966000069660000D9660000D9660000E4
:10207000D9660000D9660000D9660000D966000064
:10208000D9660000D9660000D9660000D966000054
:1020900000000000D9660000D9660000D966000083
:1020A000D9660000D9660000D9660000D966000034
:1020B0000000000010B5064C2378002B07D1054B1B
:1020C000002B02D0044800E000BF0123237010BDA4
:1020D0005C01002000000000BC960000044B10B51D
:1020E000002B03D00349044800E000BF10BDC046E8
:1020F0000000000060010020BC96000040697047AD
:1021000013B500230A0069460B808B7001680C68C8
:1021100001A90B808B70019B6946A04713BD7047D6
:10212000C820400070470000012110B504000800DD
:1021300004F0E2FC80231B01A361014BE36110BDAD
:102140001000006070B51A4C0122216819480B007C
:10215000134011421BD10121FF254360436183607D
:10216000154B82741A68494281818173C57301825B
:10217000002A00D11860114B1A68002A00D0906024
:102180001860002303840E4B0360012323600122A7
:1021900000230C4900F0DAFBFF230B4C0021200048
:1021A000237000F0E5FC2000217800F02DFC70BDCC
:1021B0007C01002080010020F0010020F4010020BB
:1021C00064900000D8010020DC010020FF22084BB1
:1021D00010B51A700022074C5A70200021789A70AE
:1021E00000F012FC6421200000F060FC10BDC0462D
:1021F000D8010020DC01002010B5040005F028FA09
:10220000200010BDF0B585B002910A9903938B6848
:10221000019001338B60CB680133CB600B690133D4
:102220000B6100269446039B350034003000019A70
:10223000029F664674784D782D06240601D16D40C4
:10224000C046641900D3E44300D32406CE68240EAC
:1022500074434D780E79751B4D70200462460096CC
:102260009446009E019A029F9760C046C04603268E
:10227000013EFDD1400000D25760C046C046C04676
:102280000826013EFDD15760C046C0460526013EE6
:10229000FDD19760C046C0460326013EFDD14000F7
:1022A00000D25760C04666463478C046C04607260E
:1022B000013EFDD15760C046C0460526013EFDD116
:1022C0009760C046C0460326013EFDD1400000D2C3
:1022D0005760C0460D782D06240601D16D40C046DA
:1022E000C0460626013EFDD15760C046C0460526C1
:1022F000013EFDD19760C046C0460326013EFDD198
:10230000400000D25760C046641900D3E44300D3B4
:1023100024060726013EFDD15760C046C04605266B
:10232000013EFDD19760C046C0460326013EFDD167
:10233000400000D25760C0468E68240E7443C046E9
:102340000726013EFDD15760C046C0460526013E26
:10235000FDD19760C046C0460326013EFDD1400036
:1023600000D25760C0460D78CE78751B0D70C04600
:102370000626013EFDD15760C046C0460526013EF7
:10238000FDD19760C046C0460326013EFDD1400006
:1023900000D25760C046C046C0460826013EFDD167
:1023A0005760C046C0460526013EFDD19760C04635
:1023B000C0460326013EFDD1400000D25760C04612
:1023C0002004C0460826013EFDD15760C046C046E5
:1023D0000526013EFDD19760C046C0460326013E5A
:1023E000FDD1400000D25760C046C046C046082616
:1023F000013EFDD15760C046C0460526013EFDD1D5
:102400009760C046C0460326013EFDD1400000D281
:102410005760C0466646B478C046C0460726013EAF
:10242000FDD15760C046C0460526013EFDD19760EC
:10243000C046C0460326013EFDD1400000D2576091
:10244000C0468D782D06240601D16D40C046C04699
:102450000626013EFDD15760C046C0460526013E16
:10246000FDD19760C046C0460326013EFDD1400025
:1024700000D25760C046641900D3E44300D3240659
:102480000726013EFDD15760C046C0460526013EE5
:10249000FDD19760C046C0460326013EFDD14000F5
:1024A00000D25760C0460E69240E7443C04607260A
:1024B000013EFDD15760C046C0460526013EFDD114
:1024C0009760C046C0460326013EFDD1400000D2C1
:1024D0005760C0468D784E79751B8D70C0460626B4
:1024E000013EFDD15760C046C0460526013EFDD1E4
:1024F0009760C046C0460326013EFDD1400000D291
:102500005760C0468E79B444C046C0460726013E97
:10251000FDD15760C046C0460526013EFDD19760FB
:10252000C046C0460326013EFDD1400000D25760A0
:10253000C0462004C0460826013EFDD15760C04673
:10254000C0460526013EFDD19760C046C046032621
:10255000013EFDD1400000D25760C046C046C04693
:102560000826013EFDD15760C046C0460526013E03
:10257000FDD19760C046C0460326013EFDD1400014
:1025800000D25760C04666467478C046C0460726EB
:10259000013EFDD15760C046C0460526013EFDD133
:1025A0009760C046C0460326013EFDD1400000D2E0
:1025B0005760C0464D782D06240601D16D40C046B7
:1025C000C0460626013EFDD15760C046C0460526DE
:1025D000013EFDD19760C046C0460326013EFDD1B5
:1025E000400000D25760C046641900D3E44300D3D2
:1025F00024060726013EFDD15760C046C046052689
:10260000013EFDD19760C046C0460326013EFDD184
:10261000400000D25760C046CE68240E7443C046C6
:102620000726013EFDD15760C046C0460526013E43
:10263000FDD19760C046C0460326013EFDD1400053
:1026400000D25760C0464D780E79751B4D70C0465C
:102650000626013EFDD15760C046C0460526013E14
:10266000FDD19760C046C0460326013EFDD1400023
:1026700000D25760C046C046C0460826013EFDD184
:102680005760C046C0460526013EFDD19760C04652
:10269000C0460326013EFDD1400000D25760C0462F
:1026A0002004C0460826013EFDD15760C046C04602
:1026B000C0460326013EFDD10D4F00966246BE681E
:1026C00062B6013B72B6BF68BC46BE4201D2094F3A
:1026D000F6196746F61B87273F01BE4205D8002B37
:1026E00000D0BDE5039805B0F0BD0020FBE7C04673
:1026F00010E000E080BB0000802100B5827C89B042
:102700000592C27C03AB0692027D09010792C26862
:102710000392028A9A80427D9A7100930CC8024803
:10272000FFF770FD09B000BD10000060F0B50600B5
:102730000C0089B004F00AF8338CC31A9BB2312B19
:10274000F8D972B6E36801AD0493238A27002B827F
:1027500023681237019316236B44180003223900B3
:1027600005F00AFC637D28006B7563686B60AB60E5
:10277000A369AB61FFF7C0FF00281CD162B6C82374
:102780009B00013BFDD172B6E36803220493238AC8
:1027900039002B822368019316236B44180005F03F
:1027A000EBFB637D28006B7563686B60AB60A369AE
:1027B000AB61FFF7A1FF62B603F0C8FF308409B038
:1027C000F0BD00000721F8B51B4A0600137801335D
:1027D0000B401C00137001221440134200D08024CF
:1027E0009A0701D5402214430422134201D020232A
:1027F0001C43350080271034E4B20C350F367F00BF
:10280000A979002904D0380004F0D6FF0130C1B204
:102810004B1C63431B12E970DAB2002B08D12B70FA
:10282000002901D00139E9700135AE42E8D1F8BD87
:10283000013A2A70F4E7C0467801002030B58BB029
:102840000193857C04001E2003910492059201A946
:102850000322684405F090FB012D0FD103A8FFF778
:10286000B1FF6A462121002352181370099323688F
:1028700020009B6903A998470BB030BD00236A462E
:1028800006939383EDE7F0B58BB001931600877C38
:1028900005001E20D217B31853400391032201A94B
:1028A000684403AC6360A36005F066FB012F11D19F
:1028B0002000FFF787FF032363750023A3619E4277
:1028C00001DAFD3363752B68210028009B69984766
:1028D0000BB0F0BD002306932382ECE710B5054C46
:1028E0000549200000F030FB2000044A044904F0B0
:1028F000B3FE10BDA4010020000200200000002053
:102900001F21000037B500236C462380A370984236
:102910000FD0CD5C002D09D0D45C002C06D0013541
:1029200001346C436D464443240CEC540133032BB7
:10293000EFD16B461A8899781000FF23120A1840CD
:1029400012020B401B04104318433EBDF8B500278C
:1029500004000E001500BB4201DD17001D002368B6
:1029600020009B68984703214F432368F6192000F5
:102970005B69666065619847011E08D0054804F0F0
:102980001BFF054D6B68834200D203006B60200083
:10299000F8BDC04640420F00DC01002070B50325A1
:1029A000074B1C68002C09D06068002804D06269BD
:1029B00000216A4305F0FCFAA468F3E770BDC04645
:1029C000F0010020F8B50E4C050023685A1C226067
:1029D0008B4214DB03F0B4FE0700FA20094E236893
:1029E000326880005843B91A974200D1012104F09F
:1029F00059FE00236880236003F0A2FE3060F8BD1A
:102A0000F8010020FC010020F0B505000E0087B0A1
:102A10006B68244C002B06D003F098FE2368C01A84
:102A20006B689842F4D303F091FEEB682060002BB2
:102A300003D03000A968984706001B4B1C68002C87
:102A400029D0A37C01936B88632B01D80023A37446
:102A50002200210023680F325B680C310293636807
:102A6000300067690393FFF74DFF05AB0204187050
:102A7000120E00025A70000E98701B8804AA907003
:102A8000138020003A00049B0399029FB847019BE2
:102A9000A374A468D3E719212800FFF793FF07B0B8
:102AA000F0BDC046EC010020F001002070B504002C
:102AB0000D0003F045FE060020002178FFF7A4FF7B
:102AC00003F07EFE03F03CFE801BA842F4D370BDF1
:102AD000F0B50500160087B003916B68224C002BFF
:102AE00006D003F033FE2368C01A6B689842F4D313
:102AF00003F02CFEEB682060002B03D03000A968A7
:102B000098470600194B1C68002C27D0A37C019322
:102B10006B88632B01D80023A37422002100236853
:102B20000F321B680C31300067690293FFF7EAFE31
:102B300005AB02041870120E00025A70000E987055
:102B40001B8804AA9070138020003A00049B03990C
:102B5000029FB847019BA374A468D5E719212800F8
:102B6000FFF730FF07B0F0BDEC010020F0010020BE
:102B700013B50400002906D000226B4601A99A80F3
:102B80009A71FFF7A5FF2000FFF708FF13BD0000B3
:102B9000FF22044B1A7000225A80DA60013A9A60D0
:102BA0007047C046DC01002000207047F8B50500E2
:102BB0000E0017000024BC4208D02B682800315DAD
:102BC0001B689847002801D00134F4E72000F8BDC5
:102BD00070470300FC33196ADA69914203D01B6A1B
:102BE000C018007E704701204042FBE70300FC3321
:102BF000D8691B6AC01A01D50130FF307047000048
:102C0000F7B50193FA238027002504009B00836019
:102C1000114B7F0008330E004560290000920360CD
:102C20003A00183005F0C4F923002000FC332130AD
:102C3000DD613A001D622900FF3005F0B9F98723F4
:102C40009B00E3185D609D60009B20002375019B45
:102C50002661A5756375FEBD809000008A23002261
:102C60009B00C1540C3BC3185A609A6001238375C2
:102C700070470200FC32536810B501339468DBB230
:102C80009C4202D054680155536010BDF7B50193C2
:102C900000230400150018009A422FD02200FC32B5
:102CA000D36120691362012204F02AF9002826D09A
:102CB0002700206904F0A6F9183701003800FFF753
:102CC000D8FF01262069B5420ED004F0F9F80221A0
:102CD000206904F0FFF8206904F094F9010038003D
:102CE000FFF7C7FF0136EDE704F0E1F8019B002B89
:102CF00003D00321206904F0EDF8E8B2FEBD050021
:102D0000FBE710B50300827D002082420ED08722AF
:102D100092009C186268A4680132D2B2A24205D027
:102D20002133FF331800FFF7A4FF012010BD03007B
:102D3000FC3399685A68914206D09A68805C9A6818
:102D40000132D2B29A60704701204042FBE7002274
:102D50008A2370B59B00827505000E00C15C006976
:102D600004F0CEF8002806D10321286904F0B2F857
:102D70000224200070BD872328009B00EA185368B6
:102D800094682130FF301C1B01D50134FF34002C26
:102D90000ED02C69FFF7CBFFC1B2200004F0EEF893
:102DA0000028E8D10321286904F094F80324E0E71F
:102DB000002EDED00321286904F08CF8D9E710B585
:102DC0001830FFF7B4FF10BD70B50400006904F0BF
:102DD000F7F8002814D0206904F000F9002810D07A
:102DE000206904F06DF80321206904F073F88C2346
:102DF0009B00E558002D39D10023FC34E3612362A8
:102E000070BD206904F0F4F8002809D0206904F0AE
:102E1000EAF8002804D0206904F0EFF80028DFD099
:102E2000206904F0E5F8002826D1206904F0D1F8E3
:102E30000028E5D0206904F0E0F8002837D0872387
:102E40009B00E218536892689B1A01D50133FF3347
:102E5000FF21002B05D020002130FF30FFF767FF56
:102E6000C1B2206904F09DF8A075C9E7236820006D
:102E70001B699847A847BFE7206904F021F820693B
:102E8000032104F027F8206904F0B7F80028B7D030
:102E9000872300229B00E3185A609A600123A375E0
:102EA0008B239B00E3589342AAD09847A8E72200BF
:102EB000FC32D369126A0133DBB22069934206D136
:102EC00003F0F5FF0321206904F004F898E704F00B
:102ED00099F8010020001830FFF7CBFE206903F0BD
:102EE000EFFFEFE710B50248FFF76EFF10BDC046D9
:102EF0000002002010B50223002202490248FFF719
:102F00007FFE10BDBC1100200002002070470000B1
:102F100070B50C00050028220021200005F048F8BB
:102F20000B222000074905F0F0FB00230122E37289
:102F3000E260296B6362002321616261A361E36146
:102F4000236270BDA4900000094BFF220833036088
:102F5000002303624362030029331A700200012335
:102F60002C325B4243851370036381617047C04616
:102F7000AC9000000122002300B58DB003920192B5
:102F8000223202930092426A016A06A800F0CAF94E
:102F90000423022206A904A800F033FA04A800F0D2
:102FA00034FAC0B20DB000BDF0B5016A0400A82229
:102FB0008DB0002900D1403200230627012604AD40
:102FC000029300920396626A019706A800F0AAF99C
:102FD0003A00290006A800F0BAF96A782B781202A4
:102FE0001343E380EA78AB781202134323816A79B2
:102FF0002B791202134363812000FFF7BBFF03000C
:103000000420002B09D00018B34206D00830022B50
:1030100003D03000032B00D12F3004F0DFFE051C5D
:103020000623E05E04F0DAFE0F4904F0B1FC291C2F
:1030300004F0BAFDE0600823E05E04F0CFFE0A4928
:1030400004F0A6FC291C04F0AFFD20610A23E05E19
:1030500004F0C4FE044904F09BFC291C04F0A4FD08
:1030600060610DB0F0BDC04600007A4770B5202207
:103070000C000500081D002104F09AFF24232360A2
:103080002B6B01266360002328002361A660FFF7F5
:103090008BFFE868074904F087FD606128690549EE
:1030A00004F082FDA0616869024904F07DFDE061E1
:1030B000300070BD0AE81C41F0B5040085B01E0068
:1030C0000AAB1B78103001930BAB1B7817000293EF
:1030D0000CAB1B780D00039300F0CEF820002430D9
:1030E00000F0CAF8220000234832A363E36323649C
:1030F00063641370537063729D4205D12721084B9E
:10310000084A094804F0CEFE2000019B2560637147
:10311000029B2771E371039BA671237205B0F0BD7A
:10312000C8900000D99000002D91000030B5040037
:1031300085B002AD00680291039203F081FE6B79C5
:10314000227AE17920680093002304F007F82979B6
:10315000029A206803F098FE206803F067FE05B02D
:1031600030BD000007B5837A00910192002B07D093
:103170009A070AD5EFF310835A425341C37272B6CD
:103180000099019AFFF7D2FF07BDDB07F8D5C368A6
:10319000014A9BB29360F3E700180040837A002B4A
:1031A00005D09A0704D5C37A002B00D062B67047C9
:1031B000DB07FCD5C368024A9BB2D360F7E7C04681
:1031C0000018004010B5006803F043FE10BD70B554
:1031D00005000C008E18B44206D021782800FFF7B5
:1031E000F1FF20700134F6E770BD00001FB5084BF9
:1031F000084A09491A6000229A800223019200922B
:10320000029306320548FFF757FF05B000BDC046E0
:103210008004002000093D00BC110020340400207F
:10322000084B1968002909D1EFF31080064A0028DD
:1032300003D172B6BFF35F8F013111701A6801328A
:103240001A6070478C04002088040020084B1A681C
:10325000002A0CD01A68013A1A601B68002B06D1AC
:10326000044B1B78002B02D0BFF35F8F62B6704710
:103270008C04002088040020FF2310B50370C023B5
:10328000002104009B004170418083800C220830A3
:1032900004F08EFE200010BD01230A0010B51A4074
:1032A000194208D00C4A1370033343708368002B13
:1032B00000D0984710BD0223194204D006490B7074
:1032C000C3684270F3E704231942F3D0024A137033
:1032D000033343700369EAE74E48004110B5FFF736
:1032E0009FFF0C4B1B8C1B071B0F0B2B0FD80A4A85
:1032F0009900885800280AD00F2408490A78A24368
:1033000013430B70064B1978C9B2FFF7C5FFFFF7DF
:103310009DFF10BD00480041900400203F4800413F
:103320004E480041F7B50193002308AC26880AAD4A
:1033300009AC0BAF2D783F7824784361019B47732C
:10334000468185734260016003720473FEBDF0B56F
:103350001600428905000B0085B0110A00688C46F2
:1033600003A9D7B20A80002809D000246A7B0194FF
:10337000009600F0A4F80400200005B0F0BD6868D5
:10338000041EF9D02C7A6A7B032C0BD16546023CD3
:103390002C430C704F700132FF240096019400F012
:1033A00063F9E8E7002C03D1803C27430F70F3E773
:1033B000022C02D17D342740F8E7012CECD10D78A6
:1033C000413C2C430C70E7E770B505000F35290030
:1033D000027B0400FFF7BBFF00280FD00020237BF7
:1033E000E3189C420CD0A27B0002002A04D19A7BF5
:1033F0001043013B0135F4E72A78F9E70120404208
:1034000070BD016002714371704710B5040000681F
:10341000FFF7DAFF0123227993406279013BD04024
:10342000184010BDF8B51E00079B1500D318C268E0
:1034300004000F00934201D90020F8BD01784068D4
:10344000FFF70CFC079B002B0FD160682A00036874
:1034500039005B6898478542EED131006068FFF71C
:1034600076FC43425841C0B2E7E7069B002BECD004
:103470006068079A036806995B689847079B9842BB
:10348000DAD1E2E7F8B51600C26805000F009642EF
:1034900011D80178F2B24068FFF7F8FB86420AD1F2
:1034A0000024A64209D9686803685B6998473855C3
:1034B0000134A4B2F5E70020F8BD0120FCE773B5A4
:1034C000040000201D0006AB40CB1B78019000904B
:1034D0002000FFF7A7FF002805D0012332002900B4
:1034E0002000FFF7CFFF76BDF0B5040000680E00A6
:1034F000150089B0002803D0FFF769FE09B0F0BDC0
:103500000122237B0292002B01D080230293029A96
:103510003378A16813405A4253414D48DBB20593BA
:1035200004F0C0F8C3B23020032158430393019341
:1035300004F0B8F83100844673190793079B8B4257
:10354000DCD000220B780693029B0398002805D05C
:103550000198002802D060460138FDD1657BA06942
:10356000023D012D45D810256557013512D0069E24
:103570001E4035006F1EBD410496059EB54209D020
:10358000049E676A6569002E2ED02E683E432E6029
:10359000012505950568E66A35430560039D002D04
:1035A00005D0019D002D02D06546013DFDD11125BC
:1035B0006557013506D0E569A66A2D682E4201D00F
:1035C0001A43D2B20568E66AB54305601120205659
:1035D000013000D00A70207B002837D15B00DBB2BD
:1035E000002BB2D10131A9E72E68BE432E60049DA5
:1035F000CFE70568E66A35430560039D002D05D0D9
:10360000019D002D02D06546013DFDD11025655775
:10361000013507D0069E6569676A334212D02E686D
:1036200037432F600568E66AB543056011202056D0
:103630000130CBD0E069A56A00680542C6D01A43C4
:10364000D2B2C3E72E68BE432E60EBE75B10C6E73D
:1036500020A1070007B56B460122D971D91DFFF7DC
:1036600043FF6B46D8790EBDF7B5009308AB040055
:103670001600006804CB0D001F780192002803D0CB
:10368000636806CBFFF76EFD0E200021205603F085
:1036900063FAAE19B5420BD1009D019BEE18AE4204
:1036A0000CD039002000FFF7D5FF28700135F6E770
:1036B00029782000FFF7CEFF0135EBE70E2001212E
:1036C000205603F049FA2068002801D0FFF766FD74
:1036D0000120FEBD10B5002002F094F810BD10B519
:1036E00002F08AF810BD000010B50100014800F09A
:1036F00019FA10BDE004002010B502F047FA10BD21
:1037000070B500F0E9F800240500AC4205D02000B7
:10371000013400F00BFDE4B2F7E770BDF0B593B0F3
:1037200001AC0D0016000021422220001F0004F011
:103730003FFC0020412F4AD926486B1C08902648A0
:10374000A570208468460730C577A57208252349EF
:10375000DBB2A180224902A821812249C377A1813D
:10376000FD392148FF3961741F31A1740A901F4946
:103770000BA805709120069101210001217660853A
:1037800003310CA80170E1762D31194A69440B70A0
:10379000A3763323228002220A216B441A700DABD8
:1037A0001970144BE270A3863B236B441A70A2730A
:1037B0000FAB3E321A703F23393A6B441A700E4BEE
:1037C000210030003B32109304F0D6FB422013B0AE
:1037D000F0BDC046240202052406000002020000DB
:1037E00009040000010200000705800320010524F0
:1037F000080B0000070500000580024008B4024BDA
:103800009C46103808BC60471D37000013B56B4656
:103810000268D9710733546819000122A04716BD08
:1038200010B5007E0024FF2805D000F053FC041ED4
:1038300001D102F0C5FF200010BD13B5007EFF28A6
:1038400002D10120404216BD6B46DC1D210000F074
:1038500061FC0028F5D02078F5E713B5007EFF283D
:1038600009D06B46DC1D0122210000F03FFC00283E
:1038700001D0207816BD01204042FBE710B5007E44
:10388000FF2801D000F052FC10BD10B5037E0020CF
:10389000FF2B02D0180000F09FFC10BDF8B5037E8E
:1038A00005000E0017000020FF2B11D01400002C83
:1038B0000DD0287E00F0E6FB002808D02200310061
:1038C000287E00F06FFC241A3618002C01D1381B1A
:1038D000F8BD02F075FFEAE7014B18787047C04663
:1038E000DC0400200023FA2243604361054B920070
:1038F00082601A0030330361FF23083202600376CE
:103900007047C046A091000010B5037EFF2B0DD17B
:10391000074A1378002B09D10121117001000376A9
:10392000044B10314361044800F068F810BDC046F4
:10393000DC04002090910000E004002007B500297D
:103940000BD1002809D1694600F0B4FB9623009AF8
:10395000DB009A4201D100F005FB07BD10B502481B
:10396000FFF7C0FF10BDC046C004002070B50400C2
:1039700088B01D4E03AD31001222280004F0FCFA7D
:10398000230007CD07C32A6831001A60AA880926D8
:1039900025009A80183532006846123104F0ECFA9E
:1039A00032006946280004F0E7FA104B6561E435FF
:1039B000EB61802223002000FE335200DA832D3099
:1039C0000133FF3ADA7700211332FF3004F0F0FAC6
:1039D000074B04226B62074BAB62074BEB62A023E1
:1039E0005B00E25408B070BDF791000009000001CF
:1039F00009040000D4910000DD9100000300F0B53F
:103A0000FE3385B001935A8B43690E009C18019BCD
:103A100005009B8B9B1A0200FF320292517F326895
:103A2000300017689BB22200B8478446002802D1B4
:103A3000002005B0F0BD2300A02763440393726803
:103A4000029B7F0003998C422DD2617804291AD100
:103A5000E678002E12D102990298497F0131417710
:103A6000002A0BD0E95D072908D8080048308000FB
:103A700042512172EA5D0132EA5532002178002973
:103A8000D6D06418DEE70529F8D1A1787F2906D9B8
:103A9000997F481C9877A0780143A170EEE7D97F01
:103AA000481CD877F7E7019B588B604480B2588355
:103AB0006B69FF359870000AD8706A7F01201A710F
:103AC000B7E70000F0B58BB002A80C0000F050FA88
:103AD000002501900234019AEBB29A421BD9104F93
:103AE0001022390006A804F047FA02AB5E5D1022EE
:103AF0000F2302A989183340CB5C06A863803900E4
:103B000004F03AFA102202AB36119B189B5D013586
:103B100023800434DFE7019B5800C0B20BB0F0BD36
:103B2000E691000070B504000D000126FFF71EFFAE
:103B3000E121064BA671A38049020548FFF7E4FE88
:103B4000280000F0D1F9300070BDC046EF0200003F
:103B5000C0040020F0B5040085B0002940D003293E
:103B600050D0A0235B00C35C00208B4248D9483171
:103B700089000B5902000193A2235B009C46A444D8
:103B8000019B1E181B5C002B00D18BE019004031FB
:103B9000C9B201295ED9F42B5CD859B2002938DBAF
:103BA00001218026404D36015D19B54252D340189F
:103BB000802149028B4200D26DE01E2A00DD71E0B7
:103BC0003A493B4E5B189D0AAD1966465100755245
:103BD0009B05384D9B0D61445B1902324B80CFE74A
:103BE0000300FC335A6AA2235B00C2520122C020A8
:103BF000A12301328000520002435B00E252E01830
:103C000005B0F0BD01004331FF31FFF75BFF02005B
:103C1000EDE719001F25A943C0291DD129002B401C
:103C20001D39751C761803963F272E780296BE43E1
:103C3000802E0FD1029E9B013E403343039E0135EF
:103C4000AE42F1D1022917D1F0261D00F600803DC9
:103C5000B542A6D3013093E70F211D008D43E02D1F
:103C600002D10B400C39DCE707211D008D43F02DFC
:103C7000F0D10B400339D4E7032904D1F8260E4DC7
:103C800036025D19E4E7802508496D035918A942F9
:103C9000E0D2042185E7202A04D0654651004B5329
:103CA00001326DE7D2B2A2E70028FFFF0000FFFF5C
:103CB00000D8FFFF00DCFFFF00F8FFFF004870475F
:103CC000E0040020014B58697047C046E004002022
:103CD00010B50A0001000248FFF73CFF10BDC046C6
:103CE000E0040020024B1868002800D000697047EB
:103CF0006406002070B508480D00046811001A0021
:103D000004AB20001B88002C04D06469201E01D065
:103D10002800A04770BDC0466406002010B5074CBF
:103D20000800246811001A0002AB1B88002C03D085
:103D3000A469002C00D0A04710BDC0466406002036
:103D4000034B1B68181E01D0503318787047C046CB
:103D500068060020F7B501931E4B00921A680F0009
:103D6000002A35D024231900414351188E69002EB2
:103D700000D1194E4343D318DD69002D00D1174DF2
:103D8000242358431218146A002C00D1144C30001C
:103D900004F0B4FC0200082800D9082231003800E1
:103DA00004F0EAF8280004F0A9FC0200102800D969
:103DB00010222900009804F0DFF8200004F09EFC97
:103DC0000200042800D904222100019804F0D4F84C
:103DD000F7BDC04668060020D49100001292000092
:103DE0001F92000070B50A4D04002E68301E0ED0E0
:103DF00024236343F6187369002B02D098472A36B0
:103E0000307024235C43286800192A30007870BD84
:103E100068060020064B10B51B680400002B06D076
:103E2000242060431818436A0B60038D138010BD73
:103E30006806002010B51C000B7800221E2B0AD04B
:103E400000232022052100F059FE044A044B128869
:103E5000A34200D9221C90B210BDC046249200009B
:103E6000FFFF000010B5040008001900074B1A6896
:103E7000002A08D024236343D2189368002B02D071
:103E8000029A984710BD01204042FBE768060020D7
:103E900010B5040008001900074B1A68002A08D062
:103EA00024236343D218D368002B02D0029A984788
:103EB00010BD01204042FBE768060020064B0200CF
:103EC0001B6810B5002B06D0242050431B181B691B
:103ED000002B00D0984710BD6806002010B50020C8
:103EE00002F05AFB10BD00002023174A10B5D1691B
:103EF0000F200B43D361012214490B7813430B703D
:103F0000134B19788143197006211C7821431970CD
:103F100010490C7822430A701A7802401A70602205
:103F200019780A431A700C4B0C4A5A805A78D209F5
:103F3000FCD1C1220A4992008B581B021B0A8B50EC
:103F4000FFF7C8FB10BDC0460004004058440041C4
:103F50003C44004159440041000C00400640000030
:103F600000E100E010B5FA2002F092FE10BD000062
:103F70007FB56A4601001000074B70CB70C01B680C
:103F80000360002013581B681BBA0B500430102824
:103F9000F8D104B070BDC0462892000000487047B8
:103FA00038920000F7B5234F0B0039680600140063
:103FB000081E02D0002B01D00120FEBD15786D0631
:103FC000AD0F012D1FD01800022DF6D15278012A15
:103FD00010D0022AF0D1637921791B020B43072B01
:103FE000EBD16B469D1D2800134903F0C5FF2B88BC
:103FF000124A03E0CA69002ADFD01378210030009A
:1040000002F0A2F8D9E75378222BD5D1E378927841
:104010001B0213435A1E934130000B76210002F01D
:104020007BF83A68136A002BC6D0107E98472800A8
:10403000C3E7C0466C0600200C00002004000020EE
:1040400070B5050010350400280001F0D7FA3F28AC
:1040500013D90020E17801F007FD00280DD02800D9
:1040600001F0CCFAE1783F2808D98E239B00E218B2
:10407000F93B0020FF3B01F029FD70BD002001F05D
:104080000DFDFAE710B5040001F0A6FB002801D1F0
:10409000002010BD01F0A8FB0028F9D1AE200123BB
:1040A000800044430248001900791840F1E7C046F7
:1040B000700600200B00AE218900484310B504496A
:1040C000072209180631180003F056FF10BDC0463C
:1040D00070060020AE239B00584310B5024B1030F1
:1040E000C01801F074FA10BD7006002070B5AE243F
:1040F000A40044432000064E103092B2801901F013
:104100009DFA0500A019FFF79BFF280070BDC0466F
:1041100070060020AE239B00584310B5024B1030B0
:10412000C01801F0A0FA10BD70060020F7B5040019
:1041300001F052FB002801D10020FEBD01F054FB2C
:10414000051EF9D1AE20800044432600144F2436CA
:10415000F619300001F03BFA0028EDD03B19280099
:104160009978019301F080FC0028E5D09E239B0004
:10417000E418E71939004022300001F05FFA019B92
:1041800004009978002808D003003A00280001F0C4
:104190009DFC0028D0D02000CFE701F07FFCFAE79B
:1041A0007006002070B5AE24A4004443094B2434AB
:1041B000E418050092B2200001F085FA0600200004
:1041C00001F005FA3F2802D92800FFF7AFFF3000C1
:1041D00070BDC04670060020AE239B00584310B54A
:1041E000024B2430C01801F009FA10BD70060020FF
:1041F00037B5AE22104C00212000920003F0D8FE0B
:10420000FF230E4A01256371E280002308222581E5
:1042100063812273802464002200009308492B00EC
:10422000084801F0BDF92B00009522000649074817
:1042300001F0B6F937BDC0467006002000C2FFFF8E
:10424000A806002080060020A80700209406002071
:1042500010B505220021074803F0AAFE064801F028
:104260003BFA064C200001F037FA0121200001F052
:104270003FFA10BD70060020800600209406002042
:10428000F0B54B7907000C0085B0022B03D0002558
:10429000280005B0F0BD8B79022BF8D11E4EB37803
:1042A000002BF4D18B78092533700978641803E06A
:1042B0002378ED18ADB2E4186378242B1DD1954214
:1042C000F6D96378042B14D163790A2B11D12378A2
:1042D00038000393E118114B0193114B0093022313
:1042E0001A0001F099FB0028D1D0039B0E35ED1880
:1042F000ADB23000FFF7A4FECAE7052BE1D12100E3
:10430000380001F047FB0028C1D0A37873702378F0
:10431000ED18ADB2E418D4E7700600207206002054
:1043200073060020F8B5050060200B00110012781C
:1043300000240240202A43D12A4F4A790E79387846
:104340001202324390423BD148782038032837D8B4
:1043500003F08AF902151838002B06D1072328002C
:10436000214A01F0F1FE01242AE0022BFBD11F4B70
:10437000002BF8D000201C4900E000BFF3E7002B21
:10438000F1D1EBE7002B03D1280001F0C5FEEAE7ED
:10439000022BE8D10124CD788A7821002D02154323
:1043A0002E0013483D71A94301F0A2F9114B26409C
:1043B000002BD8D06A08310000202240FFF7BEFA57
:1043C0002000F8BD002BDFD0022BCCD10A4B002BF4
:1043D000C9D08B78C97800200902194300E000BFDA
:1043E000C1E7C046700600207606002000000000ED
:1043F000940600203D39000000000000F7B5314C64
:10440000019000911D00E3788B4205D0A3788B4288
:1044100011D000252800FEBD2B4F2C493800AAB230
:1044200001F051F92A4B002B0BD12A4B002B1DD147
:104430002000FFF705FEA378009A93421ED00125C5
:10444000E8E763790026FF2BEFD0AE42EDD01F4B9B
:1044500062799B5D9A4207D1380001F0C8F80028C4
:1044600002D1617900E000BF0136EEE7380001F0CB
:10447000BEF80028DCD100E000BFD9E7164B002BC6
:1044800002D0002000E000BF0020FFF74FFE002810
:10449000D5D1124801F09BF80028D0D1002DCED004
:1044A0003F232E001E401D42C9D1A178019801F082
:1044B000DBFA051EC3D033003200A178019801F069
:1044C00005FBA7E77006002080060020A808002052
:1044D0000000000000000000000000009406002022
:1044E00010B58C220021024803F062FD10BDC046C9
:1044F0002809002010B50020FFF7F2FF10BD0000D2
:10450000F7B50C00637907001100032B02D00025DA
:104510002800FEBD07252279554312358D42F6D875
:10452000184E71780029F2D1300021788830611856
:10453000016048782128EAD10878091812480190CA
:1045400012480090380001F067FA0028DFD0A37904
:10455000012B01D1E379F37001233371A378022297
:1045600033703300883319680948073103F004FDBC
:10457000B1780029CCD040233800064A01F0A6FAD1
:10458000C6E7C04628090020290900202A09002082
:104590002E09002070090020F7B51F25140012789D
:1045A00006000B001540012D01D000202FE0554FD3
:1045B000207939788842F8D16021100008400A42F9
:1045C00012D02028F1D1607801380A28EDD803F004
:1045D00055F82B007D008300ECFFECFFECFFECFFB7
:1045E000ECFF49006B008900002B01D001200EE098
:1045F0006278062AD9D1E278212A09D188373A6827
:10460000002AD2D021003000137801F09DFDFEBDBC
:10461000222ACAD11800FFF765FB0200FB8821009F
:10462000300001F091FDE1E7002BDFD1E579A079C1
:10463000A1782D02E2780543002910D0012D0ED972
:1046400039720127013D304BADB200200095FFF7D4
:1046500051FB3B189BB22D4A002BA6D0DFE71F0071
:104660002A4BF2E7002B07D1E379A2791B0213430F
:10467000274A402B99D8D2E7022BB7D1E079A3790A
:10468000A17800021843E278214B002907D00128C5
:1046900005D91C788C4202D101381E4B80B20090A3
:1046A0000020FFF73BFBA1E7002B9FD1E1781A4ADE
:1046B0007971002A05D0180000E000BF002800D161
:1046C00073E72100300001F027FD8FE7002B00D0B9
:1046D0008CE7124A0133A2E7002B00D086E7104A8C
:1046E00001339CE7002BECD0022B00D07EE7A178B1
:1046F0000C4B3971002B00D178E7002000E000BF9F
:1047000074E7C04628090020310900203009002044
:104710007009002071090020000000002D09002010
:104720002C0900200000000073B5134D0400A87888
:104730006A7888420DD00024914208D10F4A0124A2
:10474000002A04D000200E49DAB200E000BF2000A9
:1047500076BD9042F2D000220A4E9BB211001000AA
:1047600000933300FFF7DAFA200040233200A978E3
:1047700001F0ACF90400EAE728090020000000007D
:10478000300900207009002070B5050010350400C4
:10479000280000F033FF3F2812D90020A17801F053
:1047A00063F900280CD0280000F028FFA1783F28EA
:1047B00007D92200393240230020FF3201F086F968
:1047C00070BD002001F06AF9FAE770B504002434E6
:1047D0000500200000F0FBFE002801D1002070BD84
:1047E0000020697801F040F90028F7D02E007936D2
:1047F000FF3631002000402200F020FF6978041EBF
:1048000008D003003200002001F060F90028E5D054
:104810002000E4E701F042F9FAE70000DC2213B5DA
:10482000002400215200094803F0C2FB012380222A
:1048300007490094074800F0B3FE0123802206498F
:104840000094064800F0ACFE13BDC046DC11002009
:1048500014120020EC1100209412002000120020FD
:1048600010B510220021054803F0A2FB044800F017
:1048700033FF044800F030FF10BDC046DC110020BB
:10488000EC11002000120020F0B585B003900292D8
:104890004B790D00012B03D00024200005B0F0BDA2
:1048A0008B79012BF8D1CB79002BF5D109788CB21B
:1048B0006D186B78242B07D1029B9C42ECD82B7887
:1048C000E418A4B2ED18F4E7042BE5D16B79012BC1
:1048D000E2D1AB79032BDFD1EB79002BDCD11B4F7D
:1048E0007978BA78114301912DD1AB783B702E784D
:1048F000A419A4B2AE192B79019A934205D83800B5
:10490000FFF742FFC9E7BB7010E0029B9C42F6D85C
:104910007378052B12D13100039801F03BF8002881
:10492000BAD0B378DA09012AEDD17B703378E41874
:10493000F618019BA4B20133DBB201933378E4187B
:10494000A4B2F618D7E71B70FFDEC046DC110020CA
:1049500000207047F8B51D4D1C00AB7806008B4257
:1049600005D06B788B4212D000242000F8BD184986
:104970001848A2B200F0A7FE174B002B02D000206F
:1049800000E000BF2800FFF7FFFE0124EDE728004C
:10499000FFF71BFF0028F8D1104800F018FE002890
:1049A000F3D1002CF1D03F2327001F401C42ECD153
:1049B0003000697801F058F8041EE6D03B003A0058
:1049C0003000697801F082F8CFE7C046DC110020A2
:1049D00014130020EC110020000000000012002041
:1049E000F0B5294C0600E18A85B049BA89B20029A0
:1049F00038D0A568280002F055FE83B2002B31D0D4
:104A00002369217D1B0A090619430BBA0393A36B83
:104A100081B21800029302F0CBFE039B0A00C1187A
:104A2000029B1A4FED1A8023607B9B009D4200D9A8
:104A30001D003B000095FFF715FA021E14DAA26B69
:104A4000A36830009B1AA362230001222C331A7042
:104A50000F4B0022A38723003E331A702E34217897
:104A600001F064F805B0F0BD2E342178002805D19E
:104A700003000090300000F070FFF3E783B23A00CB
:104A8000300001F023F8EDE7B40B0020B40900205A
:104A900005200000154B70B50500154C002B15D0F6
:104AA000607B00E000BF002810D1A3680122A36250
:104AB00023002C331A700F4BA38723003E3318704A
:104AC0002F342800217801F031F870BDA26BA36863
:104AD0009B1A80229200934200D913002F342800A1
:104AE0002178054A9BB200F0F1FFEEE700000000DC
:104AF000B40B002007270000B4090020054810B5BA
:104B000004003C34217001003E303D31037001202F
:104B10000A7010BDB40B002010B5402200210248DD
:104B200003F046FA10BDC046B40B002010B5402279
:104B30000021024803F03CFA10BDC046B40B00202F
:104B400073B54B790400082B01D0002076BD8B791A
:104B5000062BFAD1CB79502BF7D1162AF5D90D4D6A
:104B60008A782B002D331A700B782E00C9182B0071
:104B70002E33019302232F361A00009600F04CFFCB
:104B80000028E2D01F232A002000317800F09EFF89
:104B90001720DBE7B40B002073B5050014000120DB
:104BA00000290FD11378602208001340202B09D16F
:104BB0006378FE2B07D0FF2B04D12100280001F0E1
:104BC000ABFA012076BD6B46DE1D01233370094B25
:104BD000002B02D0FFF7B4F8307030780028F1D005
:104BE00001383070012332002100280001F0ACFAB6
:104BF000E7E7C046413D0000F0B51E00BD4B070091
:104C00001D78BD4C93B0012D00D189E1032D00D159
:104C1000F6E1002D22D123002F331B788B4201D0E7
:104C2000012002E0002A02D0002013B0F0BD1F2EA8
:104C3000FAD1B24B20689842F6D1B14BAD4823620D
:104C40006368A262636201230370E07BA368A263CE
:104C50006363282817D13800FFF7C2FEA64C260050
:104C600030363378022BDBD125002E3538002978F9
:104C700001F018FA002800D1F0E100222F34217849
:104C800013000092B8E12A2803D13800FFF702FF91
:104C9000E4E7002B04D0227B9BB2D20900D18AE04A
:104CA000667B252809D8192826D8032800D1E2E0F8
:104CB000122800D1A9E000282FD023003C331B7814
:104CC000002B00D1FCE000236363230001222C337E
:104CD0001A702300921830331A7023003C331B786B
:104CE000002B00D1F8E0A368002BB7D02E34380099
:104CF000217800F01BFFB1E71A380B28DDD802F04D
:104D0000BDFCA8001E00DCFFDCFFDCFFDCFFDCFFDD
:104D1000DCFFDCFF6200DCFF2C003000FFF762F8F4
:104D2000002800D0DEE023003C331B78002BC4D1E8
:104D3000744B0022A38723003E331A70BDE7724BE9
:104D4000002B00D1CEE0E17C30008B07CA07DB0FDF
:104D5000D20F090900E000BFE2E708AD2A003000E9
:104D600009A9FFF757F8099B002B02D02A88002ACF
:104D70000AD123003C331B78002B9ED1614AA287C5
:104D800022003E32137098E708206049013B1BBAAD
:104D900012BA0B604A60584A002113002C3350634A
:104DA0001970884200D19FE09368984200D93BE790
:104DB0002E32117883B2554A380000F087FE002861
:104DC00000D04BE730E709AD0C220021280003F0AA
:104DD000EFF80E2304AA9B181A00300008A9FFF769
:104DE00019F8089A002AC4D004ABDB89002BC0D084
:104DF000082112BAE9700A9202225BBA6B81434B16
:104E00002A7207CD07C30C20C5E709AC0822002190
:104E1000200003F0CDF83E4B082220210BA8099377
:104E200003F0C6F8102220210DA803F0C1F8394B79
:104E300030000BA911930DAA11ABFEF78BFF334A7B
:104E4000130007CC07C307CC07C307CC07C3242034
:104E5000A1E7314A0123002A03D0300000E000BF5F
:104E60000300012058400323C0B2C0051843274B5C
:104E7000186004208FE709AD12220021280003F0FA
:104E800097F8220023003D3210782200F0263C33B0
:104E90001B783E3211782E70E13E3340AB700A230E
:104EA000EB711A4B2873697343CD43C319002B6808
:104EB00012200B60AB888B800023A38713706AE7F6
:104EC0002100636B607B114A9BB20F31FEF7B2FF8A
:104ED000002800DAF7E65EE7104AA28722003E3299
:104EE000137000E7002056E70222034B30331A709C
:104EF000B4E6C046E40B0020B40B002055534243F7
:104F0000555342530204000000000000B409002081
:104F10000080020220202020000000000520000068
:104F2000237BDB09039316D1637B0493E37B2A2B5A
:104F300023D02100636B534A9BB204980F31FEF7D4
:104F400079FF23002C33002814DA1D704E4BA38701
:104F5000039B3E3423704D4A936B516BF31893635C
:104F60008B42C1D2D37B282B00D174E62A2B00D0F0
:104F700074E68AE6039A1A70EDE72369207DE18AD8
:104F80001B0A0006184349BA03BA89B2A068059300
:104F900002F088FB81B2A06B02F00AFC059B0A00BC
:104FA0000096C118374B0498FEF772FF00280FDAFD
:104FB000A26BA3689B1AA36223002C331D700223EB
:104FC000334A1370304BA387039B3E34237045E66E
:104FD0008642C0DD351A002808D0A36B2A001B18B2
:104FE000A363284BC118180002F0CFFF274B2A00FB
:104FF0002F33197800230093380000F0AEFC0FE641
:1050000023002E331B788B4200D027E60D2E00D0D4
:1050100024E6E37B282B0AD02A2B18D01D4B002B2B
:105020000BD02100607B0F3100E000BF05E01A4B80
:10503000002B02D0607B00E000BF23000022303351
:105040001A7023002F33197822001F23B4E6134B64
:10505000002BF2D0607BFEF731FFEEE723002F3309
:105060003800197801F01EF8002800D005E6032367
:10507000220033703800297820320A3300F026FDF0
:10508000D3E5C046B409002005200000B40B002081
:10509000E40B00200000000000000000BD3E000006
:1050A00070B504008178002000F032FD051E0BD1A0
:1050B000201D00F0A3FA3F2806D922004023280033
:1050C000A178AC3200F002FD70BD70B504004178EB
:1050D000002000F01DFD05000020854210D12600B3
:1050E0002000EC3640223100183000F0A7FA03000F
:1050F0000120002B04D032002800617800F0E6FC8B
:1051000070BD0000962213B500240021520009480A
:1051100002F04EFF0123402207490094074800F0A7
:105120003FFA0123402206490094064800F038FA6D
:1051300013BDC046F40B0020200C0020F80B00200B
:10514000600C00200C0C0020002210B5044B054818
:105150001A6000F0C1FA044800F0BEFA10BDC04663
:10516000F40B0020F80B00200C0C0020F7B54B7955
:1051700006000D00FF2B02D000242000FEBD0723F7
:105180000C795C4309349442F6D80D4F7B78BA7899
:105190001343F1D10B4B097801930B4B6918009322
:1051A00002231A0000F038FC0028E5D0AB7830006C
:1051B0003B70B9784023054A00F088FCDDE7C04623
:1051C000F40B0020F50B0020F60B0020A00C0020B3
:1051D00010B50E4CA2788A4207D0637800208B422B
:1051E00012D12000FFF771FF0DE09AB2084909487B
:1051F00000F069FA084B002B02D0002000E000BF4D
:105200002000FFF74DFF012010BDC046F40B002029
:10521000A00C0020F80B0020000000008A180300FA
:1052200090B2884202D39A89824202D25A89801867
:1052300080B27047828810B58A4204D88B1A84895C
:105240009BB29C4203D24389D218891A8BB2038243
:1052500010BD0000F7B596081400050032000B00E1
:10526000013A114892B282420ED103232200B600C5
:1052700089191A401C4206D0002301A8019302F0AC
:105280007BFE019B2B60F7BD1878844667465878F3
:10529000000238439F783F040743D8780433000660
:1052A00038432860DCE7C046FFFF0000F0B50D0082
:1052B000190087B00CAB040018880DAB1B780F1ACF
:1052C00016000393BFB2814202D26389FF1ABFB2B4
:1052D000A388BB4205D22000FFF7ACFF208AA78835
:1052E00080B2002F20D03B1CB74200D9331C9FB2A4
:1052F000A38883421BD9E288191A1600FB1AC31827
:10530000534389B24E4350439BB201932368B6B2D4
:1053100002961E18039B012B16D08F420AD831002B
:1053200028007A4302F028FE380007B0F0BDC01A0A
:1053300080B2DEE73100029A280002F01DFE029BD7
:105340002168019AE818EDE78F4206D831007A43C8
:1053500092B22800FFF77EFFE6E70323029A2800B7
:105360009A4331000392FFF775FF03230298029AD4
:1053700018401A422AD0039B019A9C4604231B1A08
:10538000191C9BB2B444934201D96B469988019B86
:1053900089B25B1A9BB20193002305AA0593664666
:1053A000F65C9E5401339842F9D123680024121808
:1053B000A14207D15918059B2B60019B002BB3D04C
:1053C0001A00C6E7185D10550134F1E72168F4E7CB
:1053D000F7B59608150003003200013A0D4C92B261
:1053E000A2420CD103232A00B60080191A401D42A4
:1053F00004D00B6801A9019302F0BEFDF7BD0C6853
:10540000270A1C705F70270C240E9F70DC70043319
:10541000E3E7C046FFFF000070B51C00D31A0E0082
:10542000050011009BB2A24202D242899B1A9BB294
:10543000AA889A4203D22800FFF7FCFEAB88181E08
:105440000AD0AA88A24208D9EA88296854433000C1
:10545000091902F091FD012070BDA41AA4B2F1E770
:10546000F0B504009C46C38987B09BB201930F003E
:10547000008A217A1600A388E28880B2002933D1FD
:105480000199019D091A89B2854202D26089091ADF
:1054900089B2591A081C89B2B14200D9301C86B2AF
:1054A000019D9D4228D2581BF31AEB18534311005B
:1054B00055439BB20093236880B25D196346414314
:1054C00089B20291012B24D0864218D839002800D5
:1054D000724302F051FD320020000199FFF79EFE59
:1054E000E081300007B0F0BD9E42D9D3F11A51439C
:1054F0001E007F180190D3E7ED1AADB2D1E7390055
:10550000029A280002F038FD029B009A2068F918E0
:10551000DFE7864206D839002800724392B2FFF7CF
:1055200057FFD8E70323029A39009A4328000392D1
:10553000FFF74EFF03230299029A19401A422DD019
:10554000039B009A9C4604235B1A181C9BB2AC4434
:10555000934201D96B461888009B80B21B1A9BB2FC
:1055600000933B6805AA059300230292029A9D5C72
:105570006246D55401339942F8D10025029B5A184E
:105580002368A84206D11818009B002BA3D01A004C
:105590003900C4E7515D59550135F2E72068F3E75A
:1055A00070B58026040004A8057836020020B242B7
:1055B0000CD8A280520092B2E380531E5242E08186
:1055C000216020822572A3816281013070BDC18972
:1055D000028A8B1A9BB2914202D242899B1A9BB2D9
:1055E0008288101C9A4200D9181C80B27047C38967
:1055F000008A181A43425841C0B2704710B5C48996
:10560000018A8288631A9BB28C4202D240891B1A9B
:105610009BB2D01A80B210BD70B5C289038A040053
:105620009BB292B2FFF7F8FE218A050082B289B2DE
:105630002000FFF7F3FD2082280070BD37B504007D
:105640000025C389008A9BB2019500902000FFF7D6
:105650002DFE218A0500020089B22000FFF7DEFD41
:10566000208228003EBD10B5C289038A92B29BB247
:10567000FFF7D2FE10BD70B50400C289008A95B252
:10568000131A9BB2904202D962899B1A9BB2A288DC
:105690009A4216D1207A2B00002802D170BD9B1AA5
:1056A0009BB29342FBD2E28820685343C01802F0B9
:1056B00063FC012229002000FFF7B0FDE0810120FA
:1056C000ECE72B00EDE710B5002A03D00023FFF72D
:1056D000C7FE0200100010BD0023C381038283882F
:1056E0005B009BB25A1E5B4282814381012070475E
:1056F00001720120704700000B4A0300002A0BD002
:105700000A4A1078984205D91820094A434310687C
:10571000C01870471B1ADBB20020042BF9D81830D0
:1057200043430448F4E7C04600000000240D002075
:10573000200D00207492000070B5114C332200211E
:105740000500200002F034FC1022FF21E01C02F0D2
:105750002FFC20001022FF21133002F029FC00242E
:1057600000F022FD2000FFF7C7FF4368280098479C
:10577000044B01341B78E4B20433A342F2DA70BD67
:10578000250D0020240D002070B505000E00141E0C
:1057900005D10378012B02D1100000F0C9FD3100C2
:1057A000281DFFF768FF0600002C05D12B78012B80
:1057B00002D1200000F0B6FD300070BD70B50500CC
:1057C0000C001600086800F0F9FC320028000021E7
:1057D0002368984770BD0000024B5878431E9841DB
:1057E000C0B27047250D0020024B18784007C00F4B
:1057F0007047C046250D0020014B18787047C04601
:10580000580D0020F8B5174E05003178002926D133
:105810003322154802F0CCFB144C201DFFF75CFF2F
:10582000134B144F1C60144B002B04D0380000E0C5
:1058300000BF124B186000242000FFF75DFF0368D3
:1058400098473B780134E4B20433A342F4DA2800E9
:1058500000F020FD280000F065FD012333700120D9
:10586000F8BDC046580D0020250D0020B8000020CE
:105870005C0D0020240D002000000000200D002001
:1058800010B5040040780A00023803281DD801F042
:10589000EBFE02261422124B1978C9071FD50120EE
:1058A0001978814319701978001881431970002103
:1058B000597004201978814306E0094B1978C9070B
:1058C0000DD50421187801431970064B2100186882
:1058D000FFF75AFF03E0024B1978C907E9D410BD5E
:1058E000250D00205C0D00207FB506000D00140082
:1058F00000210C2201A802F05BFB6B46210001A8ED
:105900001E715D71FFF7BCFF7FBDF0B585B001ACC6
:1059100007000E00150000210C22200002F048FBB9
:10592000012329002000277063702671FFF7A8FF6C
:1059300005B0F0BD1FB514006B460022DA806B463F
:105940006A461871062302A85371082202F014FB5C
:10595000210001A8FFF794FF1FBDF0B587B003AC8D
:1059600006000D000092019308220CAB00212000DC
:105970001F7802F01DFB07236370009B3900A360B2
:10598000019B2000267025716371FFF779FF07B036
:10599000F0BD00008A7870B57823150004001D4022
:1059A00000201A4229D14B7907300A7903401B02A3
:1059B0001343CA789207920F022A0ED0032A1DD0F1
:1059C0002800012A19D1124A9278023A55426A41B6
:1059D000104D52199A4209D20FE00D4A9278022ACC
:1059E00008D1FF32FF322800934206D1200000F098
:1059F000CBFC02E02800402BF8D970BD044A927815
:105A0000022A02D040220020E4E78022D200FAE7F6
:105A1000250D0020FF030000F7B506000C001F0055
:105A200000250192019BAB4201DC012003E0637879
:105A3000052B01D00020FEBDE3789B079B0FBB42E6
:105A4000F8D121003000FFF7A5FF0028F2D0A3789D
:105A5000DA09012A05D1099A137023780135E4186F
:105A6000E0E7089AF8E700007F22CB090A400A49DC
:105A700052008918C9180431CB7FDB07D80F002BDF
:105A800008D1CB7F5B0704D404230120CA7F1343D2
:105A9000CB7770470020FCE7250D00207F22CB0943
:105AA0000A40094952008918C9180431CB7F0020E7
:105AB000DB0708D4CB7F5B07D80F002B03DA042267
:105AC000CB7F9343CB777047250D002070B57F24A3
:105AD0000C40060060000D4CCD09241864190434F4
:105AE000E57F0020ED070FD40125E07F2843E07714
:105AF000300000F095FC002806D10422E37FAB4380
:105B0000E377E37F9343E37770BDC046250D002024
:105B10007F22CB090A40044952008918C918043170
:105B2000C87FC007C00F7047250D002010B50C00BE
:105B300000F0D6FC7F2121404B000749E409C91839
:105B4000022309190431CA7F1343CB770123CA7F8B
:105B50001343CB7710BDC046250D002010B50C00B7
:105B600000F0CCFC7F21022221404B000649E409D1
:105B7000C91809190431CB7F9343CB77CB7F013A06
:105B80009343CB7710BDC046250D0020F0B589B0FA
:105B9000FDF7A5FD002800D177E2BE4B1E683378E3
:105BA000012B02D1002000F0C3FB05AC2100301D09
:105BB000FFF732FD33780500012B02D1002000F001
:105BC000B1FB002D00D160E2607801380728E4D8ED
:105BD00001F05EFD08000F00520230023B02180087
:105BE0000A0254022078FFF7A7FD2279AA4B9A7087
:105BF000D3E72078FFF7A0FDA84B002BCDD000E025
:105C000000BFCAE701200421A34E2578337860271E
:105C100003433370331DDA7F8243DA77DA7F8A43B6
:105C2000DA77731DDA7F8243DA77DA7F00208A43DE
:105C3000DA7700F0C3FA23791A003A400092BA42A8
:105C400026D0402A0CD19648002821D000F0B6FA80
:105C50000021280006AAFEF7A5F900289DD117E02B
:105C6000DB06DB0E0193012B00D149E1022B00D1B1
:105C70006BE1002B0CD1009B202B13D1237A0F2B2F
:105C800006D8F618F078FFF737FD011E00D073E153
:105C900005AC2078002100F023FC8021207800F062
:105CA0001FFC7AE7009B002BF2D160790928EFD81E
:105CB00001F0E4FC16010E01EEFF0501EEFF0A0003
:105CC000B300EEFF16001C0006A800F07DFA2800C5
:105CD000A17900F0F7FB02233278134333705CE7BD
:105CE00004AA737802321370012304E1A3790093AC
:105CF0007378002B29D1009B002B26D0581EC0B2F0
:105D0000FDF7E0FF0028C3D04378022BC0D101216A
:105D10000400C2790934931152110B400A40120158
:105D20005B01134332782F318A4313433370C378B6
:105D300082781B021343C3180193019BA3420CD822
:105D4000584B002B01D000E000BF534B009A5A7013
:105D5000280006A900F0E0F91FE7637800260B2B66
:105D600002D123782600E4186378042B90D1019B9C
:105D70001F1BBBB2002702934B4B1B780433BB4263
:105D800086DB3800FFF7B8FC21008368029A280000
:105D9000984700283ED0082800D879E7029B834224
:105DA00000D275E7A2783C4B9B18D978FF2900D028
:105DB0006EE7DF70002E1BD1374B210000229C467E
:105DC0004B78052B07D18E787A3333405B006344E0
:105DD0001333F6099F550B78D21892B2C918904226
:105DE000EED8314B24181B7804339F42A5DD4FE7D2
:105DF000B178914200D04BE731796279914200D07D
:105E000046E70122F17801338A42D5D20132DF70B0
:105E1000D2B2F8E70137FFB2AEE7E088C3B2000ABA
:105E200001380E2800D933E701F028FC0F002400C8
:105E30002A0032FF32FF420032FF32FF32FF32FFD0
:105E400032FF32FF32FF32FF1800FDF737FF122317
:105E50000200280006A900F077F9FEE6134B002B9C
:105E600000D115E7FEF79AF80200D37891781B026B
:105E70000B43EEE71800FDF725FF021EF5D107E7FB
:105E800018002189FDF724FF021E00D100E70378E6
:105E9000DFE7C0465C0D0020250D0020000000005B
:105EA000A53F000000000000240D00209D3F0000E1
:105EB000774B002B00D1EBE600E000BFE4E7E3887E
:105EC000012B00D0E4E632780733134333703FE709
:105ED000E388012B00D0DBE6082233789343F5E713
:105EE0000121337804AA580908409908022319406F
:105EF000023201431180280006A900F025F94CE682
:105F0000237A0F2B00D9C3E6F618F078FFF7F4FBDD
:105F1000002800D1BCE6010006AA28000C31FFF7DA
:105F20004DFC002800D038E62379190039403B4267
:105F300000D0ADE663790A2B03D104AB9A1C117033
:105F4000D2E60B2B00D0A3E602E77823277A1F4284
:105F500000D09DE607333B405B00FA09F3189B181D
:105F6000D87C0393FFF7C8FB009B0290002B09D05D
:105F7000002800D18CE6010028000C3106AAFFF7AA
:105F80001DFC6AE6637901991A008A43012A0CD044
:105F9000002B00D07CE6039B04AA0433DB7F023293
:105FA0009B07DB0F13800B00A5E7E288002A05D1D1
:105FB00039002800012B14D1FFF7D0FD029B002BE4
:105FC00000D1EAE5190006AA0C312800FFF7F6FB1C
:105FD0000536002000F0F2F8F37FDB0700D5DCE5A2
:105FE000B6E6FFF7A3FDE9E77F2001262579294BD7
:105FF00028404100EA095B189B181A1DD17FB14364
:10600000D177D17F0336B143D177002806D129005B
:1060100062792078A36800F0E5F8BEE5D87CFFF748
:106020006BFB031E31D01E69290062792078A368BA
:10603000B047B2E5184B002B00D1AEE5154B1878F0
:106040000007C00F00E000BFA7E5144B002B00D1F4
:10605000A3E500E000BFA0E52800FFF74DFB436982
:10606000002B01D0207898470135EDB20C4B1B78FE
:106070000433AB42F0DA90E50025F7E76368002BC4
:1060800000D18AE5A068984787E509B0F0BDC04611
:1060900000000000250D00200000000000000000AE
:1060A000240D00207F22CB090A40044952008918A0
:1060B000C9180431C87F8007C00F7047250D002024
:1060C00070B5134B0600D9899889421A151C92B2F3
:1060D000402A00D940251A78ADB27F2A0ED98842CD
:1060E00011D00C4C2A009968200001F045FF802156
:1060F00022002B003000FFF7E9FC70BD884204D17C
:1061000000210022F5E78021FBE70021014AF0E7AA
:10611000600D0020740D002070B50A4E04000822A6
:1061200030000D0001F028FF002169560022C9430C
:10613000C90FF26013002000C901B260FFF7C6FC6E
:1061400070BDC046600D0020F7B5164F1500060063
:10615000082238000C00019301F00EFF0023BD60FF
:10616000FB81E279A379120201991A43131C8A4236
:1061700001D96B469B8899B2BB81002A07D00029C0
:1061800001D0281E02D03000FFF79AFFFEBD00218B
:1061900061561300C943C90F3000C901FFF796FCCF
:1061A000F4E7C046600D002010B51422002102481B
:1061B00001F0FEFE10BDC046600D0020014B1861CD
:1061C0007047C046600D002010B5054C0100082244
:1061D000200001F0D1FE0023A360E36010BDC046A3
:1061E000600D002070B5284C1E0023780500DA09E8
:1061F000C9098A4213D00020864232D1234B834200
:1062000003D02100280000F09DF823690120002B15
:1062100027D02200022128009847012021E07F2B6F
:1062200006D8A368181E1CD03200194901F0A4FE3C
:10623000A268E38992199B19A260E2889BB2E3816C
:106240009A4201D03F2E1BD82369002B0AD100218E
:1062500061560023C943C90F1A002800C901FFF77E
:1062600035FC70BD0121220028009847011EEED1A7
:10627000280000F035F98021280000F031F9CCE742
:106280002800FFF71DFFECE7600D002045630000CC
:10629000740D002001221E4B30B519780A431A7084
:1062A0009A78D207FCD59A78D207FCD41F25194AD0
:1062B0001C8D1268AC43910C29400C431C85198D30
:1062C000500B154C28408001214001431985198D40
:1062D00012489201520F014012030A431A85032209
:1062E000D9780A43DA700C22D9780A43DA700C4A5A
:1062F0005A6200221A8106321A709A789207FCD4E8
:10630000998B9A8B0A439A8308221A8330BDC04620
:1063100000500041246080003FF8FFFFFF8FFFFF27
:10632000C00D00208022014B1A60704700E100E0A0
:106330008022034BDA67BFF34F8FBFF36F8F704735
:1063400004E100E00B785B0607D14B78052B04D104
:1063500080228B781343084A9372084B084A0949F4
:106360001A605A681140802292020A435A605A68A1
:10637000920B92035A60704700500041C00D0020FC
:10638000B40D0020FF3F00F00720F0B54C790A79EA
:1063900004407F232402144300228D7806382B40CA
:1063A000ED090700D61CB740A74206D00132072AE4
:1063B000F7D1174E0020B4421ED107205C00154EC5
:1063C000641924013419024066681707124A5B01F8
:1063D00032403A436260114A9B18CA781978920792
:1063E000920F01320240002D07D181430A431A70F7
:1063F0005A7A063802435A72F0BD70201201814366
:106400000A431A700222597A6F380A435A72F3E724
:10641000FF030000C00D0020FFFFFF8F005100416F
:10642000F0B57F2723480F407E01C9097D0034184D
:106430006D1821482D012A50204D002F13D1002A1C
:1064400011D1002B0FD11E4F3A78D2098A420AD0BF
:1064500080220760476892022F403A4342604268B8
:10646000920B920342609B048019002912D142686A
:106470001B092A401343436043689B0B9B03436003
:1064800040232279134323710423E279134301202B
:10649000E371F0BD42699B0C2A4042614269920B54
:1064A0009203134380224361637913436371E2795A
:1064B0000823EBE700510041C00D0020FF3F00F032
:1064C000B40D0020002310B51A008021FFF7A8FFAB
:1064D0000122024B9A831A8310BDC046005000412E
:1064E0007F23054A0B405B019B18C9092022012923
:1064F00000D010225A717047005100417F23054A95
:106500000B405B019B18C9092222012900D01122EE
:106510001A71704700510041F0B5002401251B4B52
:1065200085B01B8C9BB203932B00A340039AE7B268
:106530001A4226D0164B6201D618F379D9B20291CD
:1065400002210B420DD0134B7E319B185A69002358
:1065500092041800920C39430095FFF7FEF90223CC
:10656000F371029B2B420CD00A4B62019B185A68B4
:106570000023920439001800920C0095FFF7EDF902
:10658000F5710134082CCFD105B0F0BD00500041A9
:1065900000510041C00D002070B52C4CA38B258B01
:1065A0001D4004231D4205D0012203210020A383A6
:1065B000FFF79AF90122154207D01023A283042184
:1065C000A38300202383FFF78FF910231D4206D0F9
:1065D000A383012205210020A382FFF785F9082368
:1065E0001D4224D01120C021A383194BA0825A68D8
:1065F000184C890522400A435A605A6922401143C7
:1066000059611321144A10705172144A14491A60C6
:106610005A681140802292020A4300215A605A6847
:106620000800920B92035A600122FFF76EF90D4C9D
:10663000237ADB0606D5012200200849FFF77AF904
:1066400011232372FFF768FF70BDC0460050004160
:10665000C00D0020FFFFFF8F00510041B40D00204E
:10666000FF3F00F0FF50004110B5034800F0DAFE94
:10667000FCF738FC10BDC046C00E002013B50D4C11
:106680000D49200000F03CFB0C490D4800F038FBA0
:106690000C490D4800F034FB0C490D4800F030FB6C
:1066A000002301222100009201939218094800F072
:1066B0004FFE13BDBC11002000080042000C004238
:1066C000C011002000100042C4110020001400423C
:1066D000C8110020C00E0020FEE700000F4A10483D
:1066E000110010B50F4B824202D0934209D1130022
:1066F000824209D100F082F800F08EFFFEE710CB55
:1067000010C18142FBD3F3E7074A8B42F2D000214C
:10671000064B9A42EED202C2FBE7C04600000020C0
:106720005C010020C09600005C0100206414002081
:1067300010B500F061F8002801D100F037F810BD65
:10674000014B18687047C046CC110020F7B51348BC
:10675000012284461249134C8E68636805689B0EBB
:106760001340019288686268019F920E3A40674622
:106770003F6893420ED1BD420CD186420AD35B19C9
:10678000FA254868AD00861B07486B437043000D2F
:10679000C018FEBD3D0013000600E3E7CC11002049
:1067A00010E000E000ED00E05555000010B5034A90
:1067B00013680133136000F071FA10BDCC11002092
:1067C00010B5FCF799FFFCF79BFF10BD70B5041ED8
:1067D00011D0FFF7BBFFFA260500B600FFF7F0FF68
:1067E000FFF7B4FF401BB042F8D3FA23013C9B00F3
:1067F000ED18002CF4D170BD002070471E22F0B5BA
:10680000504851494368514D93431A0002231343A2
:10681000436008238A691343FE228B612B68D203ED
:106820009B0213404A4A13434A4A936113000422CD
:10683000DC681442FCD00124474A147016782642C2
:1068400003D0567876B2002EF8DB01249460547899
:1068500064B2002CFBDB414C5460547864B2002CD1
:10686000FBDB8224E4015480547864B2002CFBDB0F
:1068700002249C840E34DE682642FCD0384CDC6254
:106880001024DE682642FCD02C68A40E3F2C00D1D8
:10689000203C9E6A334FA4023E4034439C629C6A73
:1068A000314EA40AA40234439C62304CDC620024C2
:1068B0009C841034DE682642FCD02D4C9C8410242D
:1068C000DE682642FCD002249E8C34439C84102433
:1068D000DE682642FCD000249460547864B2002C18
:1068E000FBDB244C5460547864B2002CFBDB1C6A44
:1068F000214E344080261C621C6AB4431C62032370
:1069000093601E4B536053785BB2002BFBDB00237C
:10691000FF240B721A4A4B728B72CB72194B1A609E
:10692000194A2B6811689A065B01C90E2340520F61
:1069300012020B431343154A138580234268134305
:106940004360F0BD0040004100040040246080002E
:106950000606000000080040000C00400104010091
:10696000B905FF7DFF03FFFFFF01000080BB0A1C8C
:106970002405000000070300FFFCFFFF03060100E1
:10698000006CDC02D000002020608000004000424B
:10699000FA212E4B10B51868890000F083FE802381
:1069A00001385B0498424FD229492A4A4860C020E6
:1069B000136A00061B021B0A0343136200238B6049
:1069C00007330B608021136A09061B021B0A0B4365
:1069D0001362FC22204B196A0A431A62FF22196AC9
:1069E00012020A431A62A022196AD2020A431A62E8
:1069F0001A4B1C005A7852B2002AFBDB184A5A8004
:106A0000184B1A00597EC9090129FBD0C8218900F9
:106A100099800521D970537EDB09012BFBD0C0235F
:106A200000205B011361907000F022F863785BB284
:106A3000002BFBDB0C4B0D4A6380D379DB09012B68
:106A4000FBD04123537010BDFEE7C046D0000020AC
:106A500010E000E000ED00E000040040000C004009
:106A60001E4000000040004221400000004800425B
:106A70001F4900B50B004A7ED209012AFBD001381C
:106A80000A282FD800F0F0FD1B2E2E2E2E2E062EBB
:106A90002E2411001A6917490A400F211A615A78E9
:106AA0008A43110001220A4310E01A6911490A4081
:106AB0000F211A615A788A4311000322F3E71A69F9
:106AC0000C490A400F211A615A788A435A7000BD56
:106AD0001A6908490A400F211A615A788A4311003D
:106AE0000222E0E7F022196912050A43F3E7C046E3
:106AF00000400042FFFFFFF0182310B50824584360
:106B0000134A13181C57013412D001245B688256B3
:106B10009C4003290CD808000E49D2015218D31802
:106B2000403300F0A1FD0210060B022119705460E1
:106B300010BD0621197054609461F9E7062119709F
:106B400054605461F4E7422119709460F0E7C04644
:106B5000EC920000004400411823F0B5082458438B
:106B6000114A13181C5701341BD0012635005F68E9
:106B70008356BD400D4ADB019A18906805420BD13F
:106B80000C00601E8441D219403210783440033624
:106B9000A400B04320431070044A9B18002901D17F
:106BA0005D61F0BD9D61FCE7EC9200000044004196
:106BB000182370B5082643432A4AD518AE57340027
:106BC000013607D0072907DC00291DDA01314C42C4
:106BD0004C416442200070BD0B00083BDBB2002436
:106BE000032BF7D8092903D12100FFF785FFF1E72F
:106BF0000A2904D10839FFF77FFF0024EAE70024BF
:106C00000B29E7D10A39F0E76C68012520009B5673
:106C1000C9B262082840DB012C4211D012480E355F
:106C20001B189A1830321078090128400143C9B264
:106C3000117041221B19403319780A431A70DCE79E
:106C40000F26094D5B199A18303215781B19B54378
:106C50002943117041224033197804000A431A7005
:106C6000B8E7C046EC92000000440041F8B50500CA
:106C70000E0017000024BC4208D02B682800315DAC
:106C80001B689847002801D00134F4E72000F8BDC4
:106C9000014B18607047C046D4000020124A1368A8
:106CA000591C20D0013B1360002B1CD172B60F4B36
:106CB00001221900187D1042FCD02022188BFF32CF
:106CC00002431A830A4ADA610A4A1A8001230A7DBA
:106CD0001A42FCD0BFF34F8F074B084ADA60BFF36C
:106CE0004F8FC046FDE77047D400002000400041B0
:106CF0000210000002A5FFFF00ED00E00400FA050D
:106D0000016070479446F0B505AC25789C1E621E64
:106D10009441624606689207376824063A43224344
:106D20000724326000682140AD01002442682943F5
:106D3000022B00D05C030A4322434260F0BD30B511
:106D4000C0250368AD031C6812052A402243C024F5
:106D50000904A40221400A431A6003685A681443D4
:106D60005C6030BD0123026811680B431360036847
:106D70001A68D207FCD4DA69D207F9D47047022323
:106D8000026811680B4313600268D3699B07FCD447
:106D9000704703681A7ED20702D41A7E9207FCD588
:106DA0007047002203685A8370470368187E4007C3
:106DB000C00F70470368187EC009704780230268BF
:106DC0005B42117E0B43137670470368588B800734
:106DD000C00F704702230268518B0B4353837047E7
:106DE0000368187EC007C00F70470368188DC0B2D3
:106DF000704703681A7ED207FCD589B20120198535
:106E00007047012203689A757047012203681A755A
:106E100070470123026811680B43136003681A6806
:106E2000D207FCD4DA69D207F9D47047022302688A
:106E300011680B4313600268D3699B07FCD4704749
:106E40000368DA699207FCD402211A688A431A603F
:106E500070470268936A5B0A5B020B4393620368A4
:106E60001A7E5207FCD5986AC0B2704710B5054823
:106E7000490000F017FC80B2002801D0013880B230
:106E8000C0B210BD006CDC0270B50C000126110010
:106E90006308026833403440156824075B072343C6
:106EA0002B4313600468FFF7E1FF207370BD80235C
:106EB0000268DB02116851680B43536070470000A1
:106EC000036803491A685A680A405A607047C04606
:106ED000FFFFFBFF032230B5036811401C68074D1C
:106EE0005A6809042A40E4061143640F5960052CCE
:106EF00003D10268D3695B07FCD430BDFFFFFCFF00
:106F000030B503680400588B8006800F022813D028
:106F10005D8B0020AD06AD0F032D2ED0588B800762
:106F200005D55D8B0020AD06AD0F012D25D15D8B04
:106F3000AD06AD0F281E20D04800596A1043C90A7B
:106F4000C0B2C902014359622368002A08D11A7EDF
:106F5000D207FCD5588B01234007C00F58400CE0E6
:106F60001A7E9207D00F002AF4DB1A7ED207F7D5DB
:106F7000C022596892020A435A6030BD0368283320
:106F800019700268137EDB07D80F002B03D1538BD7
:106F9000DB07F7D570470123508B4007C00F5840DF
:106FA000F8E70368283319700268137E5B07D80F6F
:106FB000002B04DA0123508B4007C00F5840704764
:106FC00003681868C006400F043843425841C0B2F5
:106FD00070470368187E4007C00F70470368187E2B
:106FE000C007C00F70470368588BC006C00F7047BA
:106FF0000368187E8007C00F70470368588B00072E
:10700000C00F704703681A68D206520F052A02D1D2
:107010001A7E9207FCD528331878C0B2704700005A
:1070200003680B4A93420DD00A4A93420CD00A4A95
:1070300093420BD00120094A4042934201D10430CF
:1070400040B270470020FBE70120F9E70220F7E794
:1070500000080042000C00420010004200140042F0
:10706000F8B5FFF7DDFF00282CDB1D4BC00018181A
:1070700005230479C3560320FF221840C000824034
:10708000C021D2438140002B1DDB1F2501201D4064
:10709000C026A840134D7600A851C0269B089B002F
:1070A0005B19B6009F593A401143995128603F231C
:1070B00023408024E4011C430B4B5C805A7852B27D
:1070C000002AFBDBF8BD0F200340083B07489B0864
:1070D0009B001B18D86902401143D961E7E7C046FD
:1070E000E494000000E100E0000C004000ED00E04E
:1070F000F8B504000F0016001D00FFF7B1FF2000D7
:10710000FFF730FE1C21BB000B4071072268090C01
:107110000B431360842322689375012F1AD1102129
:10712000012E00D008390C4B69431868C00000F0EC
:10713000B9FA0722216802408B895203DB04DB0C79
:1071400013438B81226803049089DB0C400B4003BE
:1071500018439081F8BDC046D0000020F7B5050067
:10716000019308AB0C0016001F78FFF752FE2800B1
:10717000FFF776FFC021C022890224040C4092034D
:10718000BF073605274316403E430C2707222B68CE
:107190003E431E60019B296813401A0080239B0216
:1071A00013434B602A68D3695B07FCD4F7BD012009
:1071B0007047000010B50368014A1B6A984710BD6C
:1071C000130400000300FC33D96F9A6F914203D07F
:1071D000DB6FC018007D704701204042FBE710B50F
:1071E00004000069FFF7BEFD22000023FC32936714
:1071F000D3679E229200A4186366A36610BDF02395
:107200001B011940802306209B0099420AD00133BC
:10721000FF330130994205D0802300205B00994262
:1072200000D1053070470F2001400020012903D014
:107230000239481E8141481C70470000B923F0B54F
:10724000182785B002919B000400C05C3B00082118
:107250004343324E1500F3185956FFF7A9FC304B43
:107260000821E05C3B004343F3185956FFF7A0FCAC
:107270002C4BE25C0393022A09D11133E05CFF2816
:1072800005D008214743F7197956FFF791FCBA2733
:10729000BF00E05DFF2819D00121FFF72DFC182267
:1072A000E35D21495A43B356B618DB015818BB2198
:1072B000890060501D4901225B18BC218900635080
:1072C00071688A40BD21890062501A600122029BC8
:1072D00011002069FFF70CFF29002000FFF78FFF46
:1072E000290006002000FFF79EFFF0221540303DE8
:1072F0006A42554103003100206901220095FFF7E1
:1073000001FD0B4B2069E25C039BE15CFFF717FD7D
:107310002069FFF734FD05B0F0BDC046EC920000D7
:10732000E5020000E7020000184400411444004157
:10733000E6020000AF2210B504000021520000F068
:1073400037FE23000022FC3320005A669A6610BDE7
:10735000F7B51D0008AB1B780400009309AB1B7840
:107360001600019300234360FA239B008360104BB7
:107370000F00083303601430FFF7DCFF20007D307E
:10738000FF30FFF7D7FFB9239B002761E654094B75
:10739000009AE554084B2000E254019A074BE2544E
:1073A000BA22E93BFF3B9200A3541032A354FEBD26
:1073B00004950000E5020000E6020000E70200007C
:1073C0000300FC33586E9B6EC01A01D55F30FF304E
:1073D000704710B5040020007D30FF30FFF7F0FF4C
:1073E0000028F8D12069FFF7D4FC10BD10B5143087
:1073F000FFF7E6FF10BD0300FC33596E9A6E914211
:1074000005DB5A6E986E801A5E30FF307047986EBA
:107410005B6EC01A0138F9E710B57D30FF30FFF719
:10742000EAFF10BD70B504000069FFF7CEFC00282C
:1074300005D02069FFF7D9FC2069FFF7CBFC206954
:10744000FFF7B3FC002824D025002069FFF7CDFC0E
:10745000AF21FC350600A86F4900013000F0A8F903
:10746000EB6F994203D0AB6FE3181E75A967BA237F
:107470009B00E35CFF2B0CD020001430FFF7BBFF18
:10748000092806DCBB23BD229B009200E358A258CA
:107490001A602069FFF7A4FC00281DD020007D3071
:1074A000FF30FFF78DFF002825D09E239B00E618B4
:1074B000B26E736E9A421BD0BE22AF21B36EB06E15
:1074C000E3185200013049009D5C00F071F9B1668B
:1074D0002069E9B2FFF78DFC2069FFF76BFC0028FB
:1074E00005D02069FFF76AFC2069FFF75AFC70BDE0
:1074F00001256D42ECE72069FFF787FCECE700000F
:10750000F7B5040000690E00FFF76AFC002847D1B8
:10751000AF277F009E239B00E518686EAB6E390095
:107520000130019300F044F9019B994224D1EFF31B
:107530001083DB070ED4204B5B68DB05DA0D002BD4
:10754000E8D0103A53B212060DD49B081B4AC03340
:107550009B009B582069FFF743FC0028DAD02000ED
:10756000FFF760FFD6E70F221340083B144A9B0841
:107570009B009B181B68EDE7AF21686E4900013046
:1075800000F016F9AB6E994205D0BE226B6E520028
:10759000E3189E5469662069FFF733FC0120FEBDA5
:1075A00020007D30FF30FFF70BFF0028B0D1310005
:1075B0002069FFF71EFCF1E700ED00E000E100E0CC
:1075C0001CED00E070B50500FC35EA6FAB6F040000
:1075D0009A421DD0AF21EB6F4900C318E86F1E7DA2
:1075E000013000F0E5F8E967BA239B00E35CFF2B6C
:1075F0000CD020001430FFF7FEFE0A2806DDBC2365
:10760000BD229B009200E358A2581A60300070BD62
:1076100001267642E8E7704710B5FFF7B9F900F0A8
:107620007DFCFFF7F8FF0120FFF7D0F80020FCF702
:107630005BF8FAF787FDFAF7C9FDFFF7C1F8034BCE
:10764000002BF8D000E000BFF5E7C04600000000C6
:1076500010B500F087FC10BD030010B5080019003C
:1076600000F03EFC10BD000002B47146490849001C
:10767000095C49008E4402BC7047C04603B47146A1
:10768000490840004900095E49008E4403BC704728
:1076900003B47146490840004900095A49008E4424
:1076A00003BC7047002243088B4274D303098B420A
:1076B0005FD3030A8B4244D3030B8B4228D3030CC2
:1076C0008B420DD3FF22090212BA030C8B4202D364
:1076D0001212090265D0030B8B4219D300E0090A8C
:1076E000C30B8B4201D3CB03C01A5241830B8B4295
:1076F00001D38B03C01A5241430B8B4201D34B037E
:10770000C01A5241030B8B4201D30B03C01A5241E2
:10771000C30A8B4201D3CB02C01A5241830A8B4267
:1077200001D38B02C01A5241430A8B4201D34B0250
:10773000C01A5241030A8B4201D30B02C01A5241B4
:10774000CDD2C3098B4201D3CB01C01A5241830968
:107750008B4201D38B01C01A524143098B4201D3A2
:107760004B01C01A524103098B4201D30B01C01ACD
:107770005241C3088B4201D3CB00C01A5241830847
:107780008B4201D38B00C01A524143088B4201D374
:107790004B00C01A5241411A00D2014652411046D4
:1077A0007047FFE701B5002000F0F0F802BDC046C9
:1077B0000029F7D076E7704703460B437FD40022B9
:1077C00043088B4274D303098B425FD3030A8B4275
:1077D00044D3030B8B4228D3030C8B420DD3FF22DF
:1077E000090212BA030C8B4202D31212090265D0AD
:1077F000030B8B4219D300E0090AC30B8B4201D360
:10780000CB03C01A5241830B8B4201D38B03C01AA6
:107810005241430B8B4201D34B03C01A5241030B1D
:107820008B4201D30B03C01A5241C30A8B4201D3CE
:10783000CB02C01A5241830A8B4201D38B02C01A79
:107840005241430A8B4201D34B02C01A5241030AF0
:107850008B4201D30B02C01A5241CDD2C3098B42D5
:1078600001D3CB01C01A524183098B4201D38B0152
:10787000C01A524143098B4201D34B01C01A5241F5
:1078800003098B4201D30B01C01A5241C3088B423A
:1078900001D3CB00C01A524183088B4201D38B0025
:1078A000C01A524143088B4201D34B00C01A5241C7
:1078B000411A00D201465241104670475DE0CA0F9E
:1078C00000D04942031000D34042534000229C465E
:1078D00003098B422DD3030A8B4212D3FC22890168
:1078E00012BA030A8B420CD3890192118B4208D33E
:1078F000890192118B4204D389013AD0921100E0A0
:107900008909C3098B4201D3CB01C01A52418309B3
:107910008B4201D38B01C01A524143098B4201D3E0
:107920004B01C01A524103098B4201D30B01C01A0B
:107930005241C3088B4201D3CB00C01A5241830885
:107940008B4201D38B00C01A5241D9D243088B42DB
:1079500001D34B00C01A5241411A00D2014663467E
:1079600052415B10104601D34042002B00D54942E2
:10797000704763465B1000D3404201B5002000F021
:1079800005F802BD0029F8D016E770477047C046D9
:10799000F0B54F464646D6464502C0B547000C1CDA
:1079A0006D0A3F0EC60F002F66D0FF2F6CD000234C
:1079B000EA00802599469A46ED0415437F3F600210
:1079C0006100430A9846090EE40F002948D0FF29B8
:1079D00010D08022D800D2040243904600207F3984
:1079E0004A4633007F1A02436C4992008A5863402A
:1079F000DBB29746002B6DD10220FF3F33E000231E
:107A000098462600454682465346022B00D17FE029
:107A1000032B00D194E0012B17D038007F300028D1
:107A20005FDD6B0704D00F232B40042B00D00435FF
:107A30002B0103D538005A4B80301D40FE2867DCEF
:107A4000AD016D0AC0B202E01E0000200025C00595
:107A50002843F60730431CBC90469946A246F0BD29
:107A6000002B2BD101204A4633004E49024392009D
:107A70008A586340DBB29746002D13D10423994600
:107A8000033B00279A469AE7002D05D10823994623
:107A9000063BFF279A4692E70C239946093BFF27AE
:107AA0009A468CE7280000F0DFF97627431F9D40B7
:107AB00000237F4299469A463F1A80E7180000F05B
:107AC000D3F94246431F76219A404942091A90460B
:107AD000002085E7FF21032082E71E00FF2000250C
